:20F800002183B240805A2001D2D32A00D243290081430000B190E8030000062C9153000044
:20F82000B190E8030000FA2BC243290081430000B190E8030000EA2F91530000B190E80330
:20F840000000E42FF93F31400003B01268F80C43B01200F81C43B01262F832D01000FD3FF5
:0CF8600003430343FF3F03431C433041BC
:02FFDE00FFFF23
:02FFE0005AF8CD
:02FFE4005AF8C9
:02FFE6005AF8C7
:02FFEA005AF8C3
:02FFEC005AF8C1
:02FFEE005AF8BF
:02FFF0005AF8BD
:02FFF2005AF8BB
:02FFF4005AF8B9
:02FFF6005AF8B7
:02FFF8005AF8B5
:02FFFA005AF8B3
:02FFFC005AF8B1
:02FFFE0046F8C3
:00000001FF
